{
  "contractName": "SupplyChain",
  "abi": [
    {
      "constant": true,
      "inputs": [
        {
          "name": "",
          "type": "address"
        },
        {
          "name": "",
          "type": "uint256"
        }
      ],
      "name": "Items",
      "outputs": [
        {
          "name": "value",
          "type": "bytes32"
        },
        {
          "name": "active",
          "type": "bool"
        }
      ],
      "payable": false,
      "stateMutability": "view",
      "type": "function"
    },
    {
      "constant": true,
      "inputs": [
        {
          "name": "",
          "type": "bytes32"
        },
        {
          "name": "",
          "type": "uint256"
        }
      ],
      "name": "Record",
      "outputs": [
        {
          "name": "",
          "type": "address"
        }
      ],
      "payable": false,
      "stateMutability": "view",
      "type": "function"
    },
    {
      "anonymous": false,
      "inputs": [
        {
          "indexed": false,
          "name": "owner",
          "type": "address"
        },
        {
          "indexed": false,
          "name": "time",
          "type": "uint256"
        }
      ],
      "name": "ItemCheckedin",
      "type": "event"
    },
    {
      "anonymous": false,
      "inputs": [
        {
          "indexed": false,
          "name": "owner",
          "type": "address"
        },
        {
          "indexed": false,
          "name": "time",
          "type": "uint256"
        }
      ],
      "name": "ItemCheckedout",
      "type": "event"
    },
    {
      "constant": false,
      "inputs": [
        {
          "name": "_value",
          "type": "bytes32"
        }
      ],
      "name": "ScanItem",
      "outputs": [
        {
          "name": "success",
          "type": "bool"
        }
      ],
      "payable": false,
      "stateMutability": "nonpayable",
      "type": "function"
    },
    {
      "constant": true,
      "inputs": [],
      "name": "getItems",
      "outputs": [
        {
          "name": "",
          "type": "bytes32[]"
        },
        {
          "name": "",
          "type": "bool[]"
        }
      ],
      "payable": false,
      "stateMutability": "view",
      "type": "function"
    },
    {
      "constant": true,
      "inputs": [
        {
          "name": "_itemNumber",
          "type": "bytes32"
        }
      ],
      "name": "getAdresses",
      "outputs": [
        {
          "name": "",
          "type": "address[]"
        }
      ],
      "payable": false,
      "stateMutability": "view",
      "type": "function"
    },
    {
      "constant": false,
      "inputs": [
        {
          "name": "index",
          "type": "uint256"
        }
      ],
      "name": "checkoutItem",
      "outputs": [
        {
          "name": "success",
          "type": "bool"
        }
      ],
      "payable": false,
      "stateMutability": "nonpayable",
      "type": "function"
    }
  ],
  "bytecode": "0x608060405234801561001057600080fd5b506109b1806100206000396000f300608060405260043610610078576000357c0100000000000000000000000000000000000000000000000000000000900463ffffffff1680632e54a9d91461007d5780633a14811d146100c2578063410d59cc1461010b5780639a55f103146101bf578063b0aaedd514610245578063e2fb5077146102b9575b600080fd5b34801561008957600080fd5b506100a860048036038101908080359060200190929190505050610334565b604051808215151515815260200191505060405180910390f35b3480156100ce57600080fd5b506100f16004803603810190808035600019169060200190929190505050610471565b604051808215151515815260200191505060405180910390f35b34801561011757600080fd5b50610120610637565b604051808060200180602001838103835285818151815260200191508051906020019060200280838360005b8381101561016757808201518184015260208101905061014c565b50505050905001838103825284818151815260200191508051906020019060200280838360005b838110156101a957808201518184015260208101905061018e565b5050505090500194505050505060405180910390f35b3480156101cb57600080fd5b506101ee6004803603810190808035600019169060200190929190505050610823565b6040518080602001828103825283818151815260200191508051906020019060200280838360005b83811015610231578082015181840152602081019050610216565b505050509050019250505060405180910390f35b34801561025157600080fd5b50610290600480360381019080803573ffffffffffffffffffffffffffffffffffffffff169060200190929190803590602001909291905050506108cc565b604051808360001916600019168152602001821515151581526020019250505060405180910390f35b3480156102c557600080fd5b506102f2600480360381019080803560001916906020019092919080359060200190929190505050610919565b604051808273ffffffffffffffffffffffffffffffffffffffff1673ffffffffffffffffffffffffffffffffffffffff16815260200191505060405180910390f35b6000600160003373ffffffffffffffffffffffffffffffffffffffff1673ffffffffffffffffffffffffffffffffffffffff16815260200190815260200160002080549050821015156103865761046c565b6000600160003373ffffffffffffffffffffffffffffffffffffffff1673ffffffffffffffffffffffffffffffffffffffff168152602001908152602001600020838154811015156103d457fe5b906000526020600020906002020160010160006101000a81548160ff0219169083151502179055507f71e8ab3b1c3cbfd1306b48eb006cafbe7951734a49002e0d91c45c6c9e58e6e63342604051808373ffffffffffffffffffffffffffffffffffffffff1673ffffffffffffffffffffffffffffffffffffffff1681526020018281526020019250505060405180910390a1600190505b919050565b60008061047c610966565b33915083816000019060001916908160001916815250506001816020019015159081151581525050600160003373ffffffffffffffffffffffffffffffffffffffff1673ffffffffffffffffffffffffffffffffffffffff16815260200190815260200160002081908060018154018082558091505090600182039060005260206000209060020201600090919290919091506000820151816000019060001916905560208201518160010160006101000a81548160ff0219169083151502179055505050506002600085600019166000191681526020019081526020016000208290806001815401808255809150509060018203906000526020600020016000909192909190916101000a81548173ffffffffffffffffffffffffffffffffffffffff021916908373ffffffffffffffffffffffffffffffffffffffff160217905550507fbec4ba625000aa0750cb3e781c43509642c61bfd490244192dd38e3170e9dc503342604051808373ffffffffffffffffffffffffffffffffffffffff1673ffffffffffffffffffffffffffffffffffffffff1681526020018281526020019250505060405180910390a1600192505050919050565b60608060006060806000600160003373ffffffffffffffffffffffffffffffffffffffff1673ffffffffffffffffffffffffffffffffffffffff168152602001908152602001600020805490509350836040519080825280602002602001820160405280156106b55781602001602082028038833980820191505090505b509250836040519080825280602002602001820160405280156106e75781602001602082028038833980820191505090505b509150600090505b8381101561081557600160003373ffffffffffffffffffffffffffffffffffffffff1673ffffffffffffffffffffffffffffffffffffffff1681526020019081526020016000208181548110151561074357fe5b906000526020600020906002020160000154838281518110151561076357fe5b906020019060200201906000191690816000191681525050600160003373ffffffffffffffffffffffffffffffffffffffff1673ffffffffffffffffffffffffffffffffffffffff168152602001908152602001600020818154811015156107c757fe5b906000526020600020906002020160010160009054906101000a900460ff1682828151811015156107f457fe5b906020019060200201901515908115158152505080806001019150506106ef565b828295509550505050509091565b60606002600083600019166000191681526020019081526020016000208054806020026020016040519081016040528092919081815260200182805480156108c057602002820191906000526020600020905b8160009054906101000a900473ffffffffffffffffffffffffffffffffffffffff1673ffffffffffffffffffffffffffffffffffffffff1681526020019060010190808311610876575b50505050509050919050565b6001602052816000526040600020818154811015156108e757fe5b9060005260206000209060020201600091509150508060000154908060010160009054906101000a900460ff16905082565b60026020528160005260406000208181548110151561093457fe5b906000526020600020016000915091509054906101000a900473ffffffffffffffffffffffffffffffffffffffff1681565b60408051908101604052806000801916815260200160001515815250905600a165627a7a72305820b1ada7854fe464cb1f45668930cdd3488f9b4abebebe4798d4b339d180a032870029",
  "source": "pragma solidity ^0.4.2;\n\ncontract SupplyChain {\n  StockItem[] stockItems;\n\n  event ItemCheckedin(address owner, uint time);\n  event ItemCheckedout(address owner, uint time);\n\n  mapping (address => StockItem[]) public Items;\n  mapping (bytes32 => address[]) public Record;\n\n  struct StockItem {\n    bytes32 value;\n    bool active;\n  }\n\n\n  function ScanItem(bytes32 _value) returns (bool success) {\n    address merchant = msg.sender;\n\n    StockItem memory stockItem;\n    stockItem.value = _value;\n    stockItem.active = true;\n\n    Items[msg.sender].push(stockItem);  // see this guy has how many items\n    Record[_value].push(merchant);  // push merchant into array\n\n    ItemCheckedin( msg.sender, now);\n    return true;\n  }\n\n  function getItems() constant returns (bytes32[], bool[]) {\n\n    uint length = Items[msg.sender].length;\n\n    bytes32[] memory values = new bytes32[](length); // to save space\n    bool[] memory actives = new bool[](length);\n\n    for (uint i = 0; i < length; i++) {\n      values[i] = Items[msg.sender][i].value;\n      actives[i] =  Items[msg.sender][i].active;\n    }\n\n    return (values, actives);\n  }\n\n\n  function getAdresses(bytes32 _itemNumber) constant returns (address[]) {\n      return Record[_itemNumber];\n  }\n\n\n  function checkoutItem(uint index) returns (bool success) {\n    if (index >=  Items[msg.sender].length) return;\n    Items[msg.sender][index].active = false;\n\n    ItemCheckedout(msg.sender, now);\n    return true;\n  }\n}\n",
  "sourcePath": "/Users/bernardlin/Git/grownyc/contracts/SupplyChain.sol",
  "compiler": {
    "name": "solc",
    "version": "0.4.23+commit.124ca40d.Emscripten.clang"
  },
  "schemaVersion": "1.0.1",
  "updatedAt": "2018-05-13T18:52:24.265Z"
}