{
  "contractName": "SupplyChain",
  "abi": [
    {
      "constant": false,
      "inputs": [
        {
          "name": "index",
          "type": "uint256"
        }
      ],
      "name": "checkoutItem",
      "outputs": [
        {
          "name": "success",
          "type": "bool"
        }
      ],
      "payable": false,
      "stateMutability": "nonpayable",
      "type": "function"
    },
    {
      "constant": false,
      "inputs": [
        {
          "name": "_value",
          "type": "bytes32"
        }
      ],
      "name": "ScanItem",
      "outputs": [
        {
          "name": "success",
          "type": "bool"
        }
      ],
      "payable": false,
      "stateMutability": "nonpayable",
      "type": "function"
    },
    {
      "constant": true,
      "inputs": [],
      "name": "getItems",
      "outputs": [
        {
          "name": "",
          "type": "bytes32[]"
        },
        {
          "name": "",
          "type": "bool[]"
        }
      ],
      "payable": false,
      "stateMutability": "view",
      "type": "function"
    },
    {
      "constant": true,
      "inputs": [
        {
          "name": "_itemNumber",
          "type": "bytes32"
        }
      ],
      "name": "getAdresses",
      "outputs": [
        {
          "name": "",
          "type": "address[]"
        }
      ],
      "payable": false,
      "stateMutability": "view",
      "type": "function"
    },
    {
      "constant": true,
      "inputs": [
        {
          "name": "",
          "type": "address"
        },
        {
          "name": "",
          "type": "uint256"
        }
      ],
      "name": "Items",
      "outputs": [
        {
          "name": "value",
          "type": "bytes32"
        },
        {
          "name": "active",
          "type": "bool"
        }
      ],
      "payable": false,
      "stateMutability": "view",
      "type": "function"
    },
    {
      "constant": true,
      "inputs": [
        {
          "name": "",
          "type": "bytes32"
        },
        {
          "name": "",
          "type": "uint256"
        }
      ],
      "name": "Record",
      "outputs": [
        {
          "name": "",
          "type": "address"
        }
      ],
      "payable": false,
      "stateMutability": "view",
      "type": "function"
    },
    {
      "anonymous": false,
      "inputs": [
        {
          "indexed": false,
          "name": "owner",
          "type": "address"
        },
        {
          "indexed": false,
          "name": "time",
          "type": "uint256"
        }
      ],
      "name": "ItemCheckedin",
      "type": "event"
    },
    {
      "anonymous": false,
      "inputs": [
        {
          "indexed": false,
          "name": "owner",
          "type": "address"
        },
        {
          "indexed": false,
          "name": "time",
          "type": "uint256"
        }
      ],
      "name": "ItemCheckedout",
      "type": "event"
    }
  ],
  "bytecode": "0x6060604052341561000f57600080fd5b610a6d8061001e6000396000f300606060405260043610610078576000357c0100000000000000000000000000000000000000000000000000000000900463ffffffff1680632e54a9d91461007d5780633a14811d146100b8578063410d59cc146100f75780639a55f103146101a9578063b0aaedd514610225578063e2fb50771461028e575b600080fd5b341561008857600080fd5b61009e60048080359060200190919050506102fe565b604051808215151515815260200191505060405180910390f35b34156100c357600080fd5b6100dd60048080356000191690602001909190505061043b565b604051808215151515815260200191505060405180910390f35b341561010257600080fd5b61010a6105fa565b604051808060200180602001838103835285818151815260200191508051906020019060200280838360005b83811015610151578082015181840152602081019050610136565b50505050905001838103825284818151815260200191508051906020019060200280838360005b83811015610193578082015181840152602081019050610178565b5050505090500194505050505060405180910390f35b34156101b457600080fd5b6101ce6004808035600019169060200190919050506107de565b6040518080602001828103825283818151815260200191508051906020019060200280838360005b838110156102115780820151818401526020810190506101f6565b505050509050019250505060405180910390f35b341561023057600080fd5b610265600480803573ffffffffffffffffffffffffffffffffffffffff1690602001909190803590602001909190505061088d565b604051808360001916600019168152602001821515151581526020019250505060405180910390f35b341561029957600080fd5b6102bc6004808035600019169060200190919080359060200190919050506108da565b604051808273ffffffffffffffffffffffffffffffffffffffff1673ffffffffffffffffffffffffffffffffffffffff16815260200191505060405180910390f35b6000600160003373ffffffffffffffffffffffffffffffffffffffff1673ffffffffffffffffffffffffffffffffffffffff168152602001908152602001600020805490508210151561035057610436565b6000600160003373ffffffffffffffffffffffffffffffffffffffff1673ffffffffffffffffffffffffffffffffffffffff1681526020019081526020016000208381548110151561039e57fe5b906000526020600020906002020160010160006101000a81548160ff0219169083151502179055507f71e8ab3b1c3cbfd1306b48eb006cafbe7951734a49002e0d91c45c6c9e58e6e63342604051808373ffffffffffffffffffffffffffffffffffffffff1673ffffffffffffffffffffffffffffffffffffffff1681526020018281526020019250505060405180910390a1600190505b919050565b600080610446610928565b33915083816000019060001916908160001916815250506001816020019015159081151581525050600160003373ffffffffffffffffffffffffffffffffffffffff1673ffffffffffffffffffffffffffffffffffffffff16815260200190815260200160002080548060010182816104bf9190610947565b916000526020600020906002020160008390919091506000820151816000019060001916905560208201518160010160006101000a81548160ff02191690831515021790555050505060026000856000191660001916815260200190815260200160002080548060010182816105359190610979565b9160005260206000209001600084909190916101000a81548173ffffffffffffffffffffffffffffffffffffffff021916908373ffffffffffffffffffffffffffffffffffffffff160217905550507fbec4ba625000aa0750cb3e781c43509642c61bfd490244192dd38e3170e9dc503342604051808373ffffffffffffffffffffffffffffffffffffffff1673ffffffffffffffffffffffffffffffffffffffff1681526020018281526020019250505060405180910390a1600192505050919050565b6106026109a5565b61060a6109b9565b60006106146109a5565b61061c6109b9565b6000600160003373ffffffffffffffffffffffffffffffffffffffff1673ffffffffffffffffffffffffffffffffffffffff168152602001908152602001600020805490509350836040518059106106715750595b90808252806020026020018201604052509250836040518059106106925750595b90808252806020026020018201604052509150600090505b838110156107d057600160003373ffffffffffffffffffffffffffffffffffffffff1673ffffffffffffffffffffffffffffffffffffffff168152602001908152602001600020818154811015156106fe57fe5b906000526020600020906002020160000154838281518110151561071e57fe5b906020019060200201906000191690816000191681525050600160003373ffffffffffffffffffffffffffffffffffffffff1673ffffffffffffffffffffffffffffffffffffffff1681526020019081526020016000208181548110151561078257fe5b906000526020600020906002020160010160009054906101000a900460ff1682828151811015156107af57fe5b906020019060200201901515908115158152505080806001019150506106aa565b828295509550505050509091565b6107e66109cd565b60026000836000191660001916815260200190815260200160002080548060200260200160405190810160405280929190818152602001828054801561088157602002820191906000526020600020905b8160009054906101000a900473ffffffffffffffffffffffffffffffffffffffff1673ffffffffffffffffffffffffffffffffffffffff1681526020019060010190808311610837575b50505050509050919050565b6001602052816000526040600020818154811015156108a857fe5b9060005260206000209060020201600091509150508060000154908060010160009054906101000a900460ff16905082565b6002602052816000526040600020818154811015156108f557fe5b90600052602060002090016000915091509054906101000a900473ffffffffffffffffffffffffffffffffffffffff1681565b6040805190810160405280600080191681526020016000151581525090565b8154818355818115116109745760020281600202836000526020600020918201910161097391906109e1565b5b505050565b8154818355818115116109a05781836000526020600020918201910161099f9190610a1c565b5b505050565b602060405190810160405280600081525090565b602060405190810160405280600081525090565b602060405190810160405280600081525090565b610a1991905b80821115610a15576000808201600090556001820160006101000a81549060ff0219169055506002016109e7565b5090565b90565b610a3e91905b80821115610a3a576000816000905550600101610a22565b5090565b905600a165627a7a72305820b7e8d0a4797b0a969e9c7596bad526c0c2bc35be13a998e5c9037ed83b5971d30029",
  "source": "pragma solidity ^0.4.2;\n\ncontract SupplyChain {\n  StockItem[] stockItems;\n\n  event ItemCheckedin(address owner, uint time);\n  event ItemCheckedout(address owner, uint time);\n\n  mapping (address => StockItem[]) public Items;\n  mapping (bytes32 => address[]) public Record;\n\n  struct StockItem {\n    bytes32 value;\n    bool active;\n  }\n\n\n  function ScanItem(bytes32 _value) returns (bool success) {\n    address merchant = msg.sender;\n\n    StockItem memory stockItem;\n    stockItem.value = _value;\n    stockItem.active = true;\n\n    Items[msg.sender].push(stockItem);  // see this guy has how many items\n    Record[_value].push(merchant);  // push merchant into array\n\n    ItemCheckedin( msg.sender, now);\n    return true;\n  }\n\n  function getItems() constant returns (bytes32[], bool[]) {\n\n    uint length = Items[msg.sender].length;\n\n    bytes32[] memory values = new bytes32[](length); // to save space\n    bool[] memory actives = new bool[](length);\n\n    for (uint i = 0; i < length; i++) {\n      values[i] = Items[msg.sender][i].value;\n      actives[i] =  Items[msg.sender][i].active;\n    }\n\n    return (values, actives);\n  }\n\n\n  function getAdresses(bytes32 _itemNumber) constant returns (address[]) {\n      return Record[_itemNumber];\n  }\n\n\n  function checkoutItem(uint index) returns (bool success) {\n    if (index >=  Items[msg.sender].length) return;\n    Items[msg.sender][index].active = false;\n\n    ItemCheckedout(msg.sender, now);\n    return true;\n  }\n}\n",
  "sourcePath": "/Users/haozhouwang/Desktop/hackathons/react/react_supplychain/SupplyChain/contracts/SupplyChain.sol",
  "compiler": {
    "name": "solc",
    "version": "0.4.18+commit.9cf6e910.Emscripten.clang"
  },
  "schemaVersion": "1.0.1",
  "updatedAt": "2018-05-12T16:36:42.459Z"
}